S020000046697273742050726F6A656374206F6E20415652204D43552E73726563FA
S11300000C942A000C9434000C9434000C943400A6
S11300100C9434000C9434000C9434000C9434008C
S11300200C9434000C9434000C9434000C9434007C
S11300300C9434000C9434000C9434000C9434006C
S11300400C9434000C9434000C9434000C9434005C
S11300500C94340011241FBECFE5D8E0DEBFCDBF21
S11300600E9436000C944D000C9400008FEF84BB6A
S1130070A89A2FEF89E698E1215080409040E1F75B
S113008000C00000A8982FEF83ED90E3215080403A
S11100909040E1F700C00000EBCFF894FFCFE2
S9030000FC
