:100000000C9434000C9451000C9451000C94510049
:100010000C9451000C9451000C9451000C9451001C
:100020000C9451000C9451000C9451000C9451000C
:100030000C9451000C9451000C9451000C945100FC
:100040000C9451000C9451000C9451000C945100EC
:100050000C9451000C9451000C9451000C945100DC
:100060000C9451000C94510011241FBECFEFD8E026
:10007000DEBFCDBF11E0A0E0B1E0E4E3F2E002C0FA
:1000800005900D92A031B107D9F721E0A0E1B1E0D0
:1000900001C01D92A031B207E1F70E949C000C94B0
:1000A00018010C940000EAE7F0E08081876080830B
:1000B000ACE7B0E08C9180648C9380818068808311
:1000C0008081806480830895ECE7F0E09081907FE8
:1000D00090839081892B8083EAE7F0E080818064BF
:1000E0008083808186FDFDCF80917800909179009A
:1000F00008951092C50083E38093C40088E1809343
:10010000C10086E08093C2000895E0ECF0E09081A9
:1001100095FFFDCF8093C6000895CF93DF93EC0148
:100120008881882331F021960E9485008991811170
:10013000FBCFDF91CF910895CF93DF9300D000D014
:10014000CDB7DEB70E9453000E9479008FEF84B9CB
:10015000FF24F39480E00E9464008C014AE0BE0119
:100160006F5F7F4F0E94EE00CE0101960E948D00CE
:1001700080E091E00E948D008DE00E9485002FEFCD
:1001800087EA91E6215080409040E1F700C00000EE
:10019000C801845F91408039914040F482E091E051
:1001A0000E948D008DE00E948500F5B8043F81E03B
:1001B000180740F486E091E00E948D008DE00E94D7
:1001C000850015B80538134028F28AE091E00E94B6
:1001D0008D008DE00E948500F5B8BCCFBB27FB01E8
:1001E0005527AA27880F991FAA1FA41710F0A41B30
:1001F00083955051B9F7A05DAA3308F0A95DA1938A
:10020000009779F7B111B1931192CB010C940801C9
:10021000DC01FC01672F71917723E1F7329704C06D
:100220007C916D9370836291AE17BF07C8F30895F8
:04023000F894FFCF70
:100234002C004D4944004C4F5700484947480000A2
:00000001FF
